{
  "_format": "hh-sol-artifact-1",
  "contractName": "RockPaperScissors",
  "sourceName": "contracts/RockPaperScissors.sol",
  "abi": [
    {
      "anonymous": false,
      "inputs": [
        {
          "indexed": true,
          "internalType": "uint256",
          "name": "gameId",
          "type": "uint256"
        },
        {
          "indexed": false,
          "internalType": "address",
          "name": "player1",
          "type": "address"
        }
      ],
      "name": "GameAborted",
      "type": "event"
    },
    {
      "anonymous": false,
      "inputs": [
        {
          "indexed": true,
          "internalType": "uint256",
          "name": "gameId",
          "type": "uint256"
        },
        {
          "indexed": true,
          "internalType": "address",
          "name": "player1",
          "type": "address"
        }
      ],
      "name": "GameCreated",
      "type": "event"
    },
    {
      "anonymous": false,
      "inputs": [
        {
          "indexed": true,
          "internalType": "uint256",
          "name": "gameId",
          "type": "uint256"
        },
        {
          "indexed": false,
          "internalType": "address",
          "name": "claimer",
          "type": "address"
        }
      ],
      "name": "GameExpired",
      "type": "event"
    },
    {
      "anonymous": false,
      "inputs": [
        {
          "indexed": true,
          "internalType": "uint256",
          "name": "gameId",
          "type": "uint256"
        },
        {
          "indexed": true,
          "internalType": "address",
          "name": "player2",
          "type": "address"
        }
      ],
      "name": "GameJoined",
      "type": "event"
    },
    {
      "anonymous": false,
      "inputs": [
        {
          "indexed": true,
          "internalType": "uint256",
          "name": "gameId",
          "type": "uint256"
        },
        {
          "indexed": false,
          "internalType": "address",
          "name": "winner",
          "type": "address"
        },
        {
          "indexed": false,
          "internalType": "enum RockPaperScissors.Move",
          "name": "p1Move",
          "type": "uint8"
        },
        {
          "indexed": false,
          "internalType": "enum RockPaperScissors.Move",
          "name": "p2Move",
          "type": "uint8"
        }
      ],
      "name": "GameRevealed",
      "type": "event"
    },
    {
      "inputs": [],
      "name": "REVEAL_TIMEOUT",
      "outputs": [
        {
          "internalType": "uint256",
          "name": "",
          "type": "uint256"
        }
      ],
      "stateMutability": "view",
      "type": "function"
    },
    {
      "inputs": [
        {
          "internalType": "uint256",
          "name": "gameId",
          "type": "uint256"
        }
      ],
      "name": "abortGame",
      "outputs": [],
      "stateMutability": "nonpayable",
      "type": "function"
    },
    {
      "inputs": [
        {
          "internalType": "uint256",
          "name": "gameId",
          "type": "uint256"
        }
      ],
      "name": "claimTimeout",
      "outputs": [],
      "stateMutability": "nonpayable",
      "type": "function"
    },
    {
      "inputs": [
        {
          "internalType": "bytes32",
          "name": "_commitment",
          "type": "bytes32"
        }
      ],
      "name": "createGame",
      "outputs": [],
      "stateMutability": "payable",
      "type": "function"
    },
    {
      "inputs": [
        {
          "internalType": "uint256",
          "name": "",
          "type": "uint256"
        }
      ],
      "name": "games",
      "outputs": [
        {
          "internalType": "address payable",
          "name": "player1",
          "type": "address"
        },
        {
          "internalType": "address payable",
          "name": "player2",
          "type": "address"
        },
        {
          "internalType": "bytes32",
          "name": "p1Commit",
          "type": "bytes32"
        },
        {
          "internalType": "enum RockPaperScissors.Move",
          "name": "p2Move",
          "type": "uint8"
        },
        {
          "internalType": "uint256",
          "name": "stake",
          "type": "uint256"
        },
        {
          "internalType": "uint256",
          "name": "deadline",
          "type": "uint256"
        },
        {
          "internalType": "enum RockPaperScissors.GameState",
          "name": "state",
          "type": "uint8"
        }
      ],
      "stateMutability": "view",
      "type": "function"
    },
    {
      "inputs": [
        {
          "internalType": "uint256",
          "name": "gameId",
          "type": "uint256"
        }
      ],
      "name": "getGame",
      "outputs": [
        {
          "internalType": "address",
          "name": "player1",
          "type": "address"
        },
        {
          "internalType": "address",
          "name": "player2",
          "type": "address"
        },
        {
          "internalType": "uint256",
          "name": "stake",
          "type": "uint256"
        },
        {
          "internalType": "enum RockPaperScissors.GameState",
          "name": "state",
          "type": "uint8"
        },
        {
          "internalType": "uint256",
          "name": "deadline",
          "type": "uint256"
        }
      ],
      "stateMutability": "view",
      "type": "function"
    },
    {
      "inputs": [
        {
          "internalType": "uint256",
          "name": "gameId",
          "type": "uint256"
        },
        {
          "internalType": "enum RockPaperScissors.Move",
          "name": "move",
          "type": "uint8"
        }
      ],
      "name": "joinGame",
      "outputs": [],
      "stateMutability": "payable",
      "type": "function"
    },
    {
      "inputs": [],
      "name": "nextGameId",
      "outputs": [
        {
          "internalType": "uint256",
          "name": "",
          "type": "uint256"
        }
      ],
      "stateMutability": "view",
      "type": "function"
    },
    {
      "inputs": [
        {
          "internalType": "uint256",
          "name": "gameId",
          "type": "uint256"
        },
        {
          "internalType": "enum RockPaperScissors.Move",
          "name": "move",
          "type": "uint8"
        },
        {
          "internalType": "string",
          "name": "secret",
          "type": "string"
        }
      ],
      "name": "revealMove",
      "outputs": [],
      "stateMutability": "nonpayable",
      "type": "function"
    }
  ],
  "bytecode": "0x6080604052348015600f57600080fd5b50611cec8061001f6000396000f3fe6080604052600436106100865760003560e01c80639e231e2d116100595780639e231e2d1461013e578063a2f77bcc14610167578063b135bbb0146101a8578063bd675c0e146101d3578063ca6649c5146101fc57610086565b8063117a5b901461008b5780633d6ae3a7146100ce578063457391e5146100f957806386e773f114610115575b600080fd5b34801561009757600080fd5b506100b260048036038101906100ad9190611170565b610218565b6040516100c597969594939291906112c5565b60405180910390f35b3480156100da57600080fd5b506100e36102b4565b6040516100f09190611334565b60405180910390f35b610113600480360381019061010e919061137b565b6102ba565b005b34801561012157600080fd5b5061013c60048036038101906101379190611170565b610502565b005b34801561014a57600080fd5b5061016560048036038101906101609190611170565b610722565b005b34801561017357600080fd5b5061018e60048036038101906101899190611170565b6108f0565b60405161019f9594939291906113c9565b60405180910390f35b3480156101b457600080fd5b506101bd610987565b6040516101ca9190611334565b60405180910390f35b3480156101df57600080fd5b506101fa60048036038101906101f591906114a6565b61098d565b005b6102166004803603810190610211919061151a565b610e49565b005b60006020528060005260406000206000915090508060000160009054906101000a900473ffffffffffffffffffffffffffffffffffffffff16908060010160009054906101000a900473ffffffffffffffffffffffffffffffffffffffff16908060020154908060030160009054906101000a900460ff16908060040154908060050154908060060160009054906101000a900460ff16905087565b61025881565b600034116102fd576040517f08c379a00000000000000000000000000000000000000000000000000000000081526004016102f4906115b7565b60405180910390fd5b6040518060e001604052803373ffffffffffffffffffffffffffffffffffffffff168152602001600073ffffffffffffffffffffffffffffffffffffffff1681526020018281526020016000600381111561035b5761035a6111f7565b5b81526020013481526020016000815260200160006004811115610381576103806111f7565b5b815250600080600154815260200190815260200160002060008201518160000160006101000a81548173ffffffffffffffffffffffffffffffffffffffff021916908373ffffffffffffffffffffffffffffffffffffffff16021790555060208201518160010160006101000a81548173ffffffffffffffffffffffffffffffffffffffff021916908373ffffffffffffffffffffffffffffffffffffffff1602179055506040820151816002015560608201518160030160006101000a81548160ff0219169083600381111561045b5761045a6111f7565b5b02179055506080820151816004015560a0820151816005015560c08201518160060160006101000a81548160ff0219169083600481111561049f5761049e6111f7565b5b02179055509050503373ffffffffffffffffffffffffffffffffffffffff166001547fc3e0f84839dc888c892a013d10c8f9d6dc05a21a879d0ce468ca558013e9121c60405160405180910390a360016000815480929190600101919050555050565b8060008082815260200190815260200160002060010160009054906101000a900473ffffffffffffffffffffffffffffffffffffffff1673ffffffffffffffffffffffffffffffffffffffff163373ffffffffffffffffffffffffffffffffffffffff16146105a6576040517f08c379a000000000000000000000000000000000000000000000000000000000815260040161059d90611623565b60405180910390fd5b60008060008481526020019081526020016000209050600260048111156105d0576105cf6111f7565b5b8160060160009054906101000a900460ff1660048111156105f4576105f36111f7565b5b14610634576040517f08c379a000000000000000000000000000000000000000000000000000000000815260040161062b9061168f565b60405180910390fd5b8060050154421161067a576040517f08c379a0000000000000000000000000000000000000000000000000000000008152600401610671906116fb565b60405180910390fd5b6106b88160010160009054906101000a900473ffffffffffffffffffffffffffffffffffffffff16600283600401546106b3919061174a565b61107f565b60048160060160006101000a81548160ff021916908360048111156106e0576106df6111f7565b5b0217905550827fb6d3e48127f7362ed1f915ea5afb8ab391b0eb741d1c628171638dca128a947b33604051610715919061178c565b60405180910390a2505050565b8060008082815260200190815260200160002060000160009054906101000a900473ffffffffffffffffffffffffffffffffffffffff1673ffffffffffffffffffffffffffffffffffffffff163373ffffffffffffffffffffffffffffffffffffffff16146107c6576040517f08c379a00000000000000000000000000000000000000000000000000000000081526004016107bd906117f3565b60405180910390fd5b60008060008481526020019081526020016000209050600060048111156107f0576107ef6111f7565b5b8160060160009054906101000a900460ff166004811115610814576108136111f7565b5b14610854576040517f08c379a000000000000000000000000000000000000000000000000000000000815260040161084b9061185f565b60405180910390fd5b60048160060160006101000a81548160ff0219169083600481111561087c5761087b6111f7565b5b02179055506108b38160000160009054906101000a900473ffffffffffffffffffffffffffffffffffffffff16826004015461107f565b827fccd90f394edb121676fbdafd2a2d20c173f98e29c9d3cadbd5b8cde393bbb54b336040516108e3919061178c565b60405180910390a2505050565b60008060008060008060008088815260200190815260200160002090508060000160009054906101000a900473ffffffffffffffffffffffffffffffffffffffff168160010160009054906101000a900473ffffffffffffffffffffffffffffffffffffffff1682600401548360060160009054906101000a900460ff168460050154955095509550955095505091939590929450565b60015481565b8360008082815260200190815260200160002060000160009054906101000a900473ffffffffffffffffffffffffffffffffffffffff1673ffffffffffffffffffffffffffffffffffffffff163373ffffffffffffffffffffffffffffffffffffffff1614610a31576040517f08c379a0000000000000000000000000000000000000000000000000000000008152600401610a28906117f3565b60405180910390fd5b6000806000878152602001908152602001600020905060026004811115610a5b57610a5a6111f7565b5b8160060160009054906101000a900460ff166004811115610a7f57610a7e6111f7565b5b14610abf576040517f08c379a0000000000000000000000000000000000000000000000000000000008152600401610ab6906118cb565b60405180910390fd5b8060020154858585604051602001610ad993929190611960565b6040516020818303038152906040528051906020012014610b2f576040517f08c379a0000000000000000000000000000000000000000000000000000000008152600401610b26906119d6565b60405180910390fd5b60008160030160009054906101000a900460ff166003811115610b5557610b546111f7565b5b866003811115610b6857610b676111f7565b5b03610bd657610b9f8260000160009054906101000a900473ffffffffffffffffffffffffffffffffffffffff16836004015461107f565b610bd18260010160009054906101000a900473ffffffffffffffffffffffffffffffffffffffff16836004015461107f565b610d77565b60016003811115610bea57610be96111f7565b5b866003811115610bfd57610bfc6111f7565b5b148015610c3e5750600380811115610c1857610c176111f7565b5b8260030160009054906101000a900460ff166003811115610c3c57610c3b6111f7565b5b145b80610cae575060026003811115610c5857610c576111f7565b5b866003811115610c6b57610c6a6111f7565b5b148015610cad575060016003811115610c8757610c866111f7565b5b8260030160009054906101000a900460ff166003811115610cab57610caa6111f7565b5b145b5b80610d1d5750600380811115610cc757610cc66111f7565b5b866003811115610cda57610cd96111f7565b5b148015610d1c575060026003811115610cf657610cf56111f7565b5b8260030160009054906101000a900460ff166003811115610d1a57610d196111f7565b5b145b5b15610d4e578160000160009054906101000a900473ffffffffffffffffffffffffffffffffffffffff169050610d76565b8160010160009054906101000a900473ffffffffffffffffffffffffffffffffffffffff1690505b5b600073ffffffffffffffffffffffffffffffffffffffff168173ffffffffffffffffffffffffffffffffffffffff1614610dc657610dc58160028460040154610dc0919061174a565b61107f565b5b60038260060160006101000a81548160ff02191690836004811115610dee57610ded6111f7565b5b0217905550867f8ffcee415efc4c944988b0022e47100846dc33bf96c39830991890fb74f58bee82888560030160009054906101000a900460ff16604051610e3893929190611a55565b60405180910390a250505050505050565b6000806000848152602001908152602001600020905060006004811115610e7357610e726111f7565b5b8160060160009054906101000a900460ff166004811115610e9757610e966111f7565b5b14610ed7576040517f08c379a0000000000000000000000000000000000000000000000000000000008152600401610ece90611ad8565b60405180910390fd5b80600401543414610f1d576040517f08c379a0000000000000000000000000000000000000000000000000000000008152600401610f1490611b44565b60405180910390fd5b60006003811115610f3157610f306111f7565b5b826003811115610f4457610f436111f7565b5b03610f84576040517f08c379a0000000000000000000000000000000000000000000000000000000008152600401610f7b90611bb0565b60405180910390fd5b338160010160006101000a81548173ffffffffffffffffffffffffffffffffffffffff021916908373ffffffffffffffffffffffffffffffffffffffff160217905550818160030160006101000a81548160ff02191690836003811115610fee57610fed6111f7565b5b021790555060028160060160006101000a81548160ff0219169083600481111561101b5761101a6111f7565b5b02179055506102584261102e9190611bd0565b81600501819055503373ffffffffffffffffffffffffffffffffffffffff16837f45c4f9cbafe186141862608c493f28b823fde4c2142bedc3f5169961a73fdd2260405160405180910390a3505050565b60008273ffffffffffffffffffffffffffffffffffffffff16826040516110a590611c35565b60006040518083038185875af1925050503d80600081146110e2576040519150601f19603f3d011682016040523d82523d6000602084013e6110e7565b606091505b505090508061112b576040517f08c379a000000000000000000000000000000000000000000000000000000000815260040161112290611c96565b60405180910390fd5b505050565b600080fd5b600080fd5b6000819050919050565b61114d8161113a565b811461115857600080fd5b50565b60008135905061116a81611144565b92915050565b60006020828403121561118657611185611130565b5b60006111948482850161115b565b91505092915050565b600073ffffffffffffffffffffffffffffffffffffffff82169050919050565b60006111c88261119d565b9050919050565b6111d8816111bd565b82525050565b6000819050919050565b6111f1816111de565b82525050565b7f4e487b7100000000000000000000000000000000000000000000000000000000600052602160045260246000fd5b60048110611237576112366111f7565b5b50565b600081905061124882611226565b919050565b60006112588261123a565b9050919050565b6112688161124d565b82525050565b6112778161113a565b82525050565b6005811061128e5761128d6111f7565b5b50565b600081905061129f8261127d565b919050565b60006112af82611291565b9050919050565b6112bf816112a4565b82525050565b600060e0820190506112da600083018a6111cf565b6112e760208301896111cf565b6112f460408301886111e8565b611301606083018761125f565b61130e608083018661126e565b61131b60a083018561126e565b61132860c08301846112b6565b98975050505050505050565b6000602082019050611349600083018461126e565b92915050565b611358816111de565b811461136357600080fd5b50565b6000813590506113758161134f565b92915050565b60006020828403121561139157611390611130565b5b600061139f84828501611366565b91505092915050565b60006113b38261119d565b9050919050565b6113c3816113a8565b82525050565b600060a0820190506113de60008301886113ba565b6113eb60208301876113ba565b6113f8604083018661126e565b61140560608301856112b6565b611412608083018461126e565b9695505050505050565b6004811061142957600080fd5b50565b60008135905061143b8161141c565b92915050565b600080fd5b600080fd5b600080fd5b60008083601f84011261146657611465611441565b5b8235905067ffffffffffffffff81111561148357611482611446565b5b60208301915083600182028301111561149f5761149e61144b565b5b9250929050565b600080600080606085870312156114c0576114bf611130565b5b60006114ce8782880161115b565b94505060206114df8782880161142c565b935050604085013567ffffffffffffffff811115611500576114ff611135565b5b61150c87828801611450565b925092505092959194509250565b6000806040838503121561153157611530611130565b5b600061153f8582860161115b565b92505060206115508582860161142c565b9150509250929050565b600082825260208201905092915050565b7f5374616b65207265717569726564000000000000000000000000000000000000600082015250565b60006115a1600e8361155a565b91506115ac8261156b565b602082019050919050565b600060208201905081810360008301526115d081611594565b9050919050565b7f4e6f7420706c6179657232000000000000000000000000000000000000000000600082015250565b600061160d600b8361155a565b9150611618826115d7565b602082019050919050565b6000602082019050818103600083015261163c81611600565b9050919050565b7f4e6f742077616974696e6720666f722072657665616c00000000000000000000600082015250565b600061167960168361155a565b915061168482611643565b602082019050919050565b600060208201905081810360008301526116a88161166c565b9050919050565b7f546f6f206561726c790000000000000000000000000000000000000000000000600082015250565b60006116e560098361155a565b91506116f0826116af565b602082019050919050565b60006020820190508181036000830152611714816116d8565b9050919050565b7f4e487b7100000000000000000000000000000000000000000000000000000000600052601160045260246000fd5b60006117558261113a565b91506117608361113a565b925082820261176e8161113a565b915082820484148315176117855761178461171b565b5b5092915050565b60006020820190506117a160008301846113ba565b92915050565b7f4e6f7420706c6179657231000000000000000000000000000000000000000000600082015250565b60006117dd600b8361155a565b91506117e8826117a7565b602082019050919050565b6000602082019050818103600083015261180c816117d0565b9050919050565b7f43616e6e6f742061626f7274206e6f7700000000000000000000000000000000600082015250565b600061184960108361155a565b915061185482611813565b602082019050919050565b600060208201905081810360008301526118788161183c565b9050919050565b7f4e6f742072657665616c20706861736500000000000000000000000000000000600082015250565b60006118b560108361155a565b91506118c08261187f565b602082019050919050565b600060208201905081810360008301526118e4816118a8565b9050919050565b60008160f81b9050919050565b6000611903826118eb565b9050919050565b61191b6119168261124d565b6118f8565b82525050565b600081905092915050565b82818337600083830152505050565b60006119478385611921565b935061195483858461192c565b82840190509392505050565b600061196c828661190a565b60018201915061197d82848661193b565b9150819050949350505050565b7f496e76616c696420636f6d6d69746d656e740000000000000000000000000000600082015250565b60006119c060128361155a565b91506119cb8261198a565b602082019050919050565b600060208201905081810360008301526119ef816119b3565b9050919050565b6000819050919050565b6000611a1b611a16611a118461119d565b6119f6565b61119d565b9050919050565b6000611a2d82611a00565b9050919050565b6000611a3f82611a22565b9050919050565b611a4f81611a34565b82525050565b6000606082019050611a6a6000830186611a46565b611a77602083018561125f565b611a84604083018461125f565b949350505050565b7f47616d65206e6f74206a6f696e61626c65000000000000000000000000000000600082015250565b6000611ac260118361155a565b9150611acd82611a8c565b602082019050919050565b60006020820190508181036000830152611af181611ab5565b9050919050565b7f5374616b65206d69736d61746368000000000000000000000000000000000000600082015250565b6000611b2e600e8361155a565b9150611b3982611af8565b602082019050919050565b60006020820190508181036000830152611b5d81611b21565b9050919050565b7f496e76616c6964206d6f76650000000000000000000000000000000000000000600082015250565b6000611b9a600c8361155a565b9150611ba582611b64565b602082019050919050565b60006020820190508181036000830152611bc981611b8d565b9050919050565b6000611bdb8261113a565b9150611be68361113a565b9250828201905080821115611bfe57611bfd61171b565b5b92915050565b600081905092915050565b50565b6000611c1f600083611c04565b9150611c2a82611c0f565b600082019050919050565b6000611c4082611c12565b9150819050919050565b7f5472616e73666572206661696c65640000000000000000000000000000000000600082015250565b6000611c80600f8361155a565b9150611c8b82611c4a565b602082019050919050565b60006020820190508181036000830152611caf81611c73565b905091905056fea2646970667358221220e73cb12cd9cb7bc446e52132ec3c2f43bf7986ad87b85aaadb19a7c0144be02264736f6c634300081c0033",
  "linkReferences": {},
  "deployedLinkReferences": {}
}